65501482660     2202201700320560COM SERV COBR                           -000000000560000000002220270000000000TOTAL DE MOVS. 000056                   
65501482660     2202201700320560IVA COMISION                            -000000000089600000002219374000000000TOTAL DE MOVS. 000056                   
65501482660     2202201706014230DEP ELE PAG TC                          +000000002976000000002249134001993054AFIL.-001993054                         
65501482660     2202201706014230DEP ELE PAG TC                          +000000069427000000002943404001993062AFIL.-001993062                         
65501482660     2202201706014230DEP ELE PAG TC                          +000000011105000000003054454009326778AFIL.-009326778                         
65501482660     2202201706014230DO CO DE PAGTC                          -000000000040180000003054052201993054AFIL.-001993054                         
65501482660     2202201706014230DOM IVA COMIS                           -000000000006430000003053987901993054AFIL.-001993054                         
65501482660     2202201706014230DO CO DE PAGTC                          -000000001005780000003043930101993062AFIL.-001993062                         
65501482660     2202201706014230DOM IVA COMIS                           -000000000160920000003042320901993062AFIL.-001993062                         
65501482660     2202201706014230DO CO DE PAGTC                          -000000000163250000003040688409326778AFIL.-009326778                         
65501482660     2202201706014230DOM IVA COMIS                           -000000000026120000003040427209326778AFIL.-009326778                         
65501482660     2202201707000572COM VTA TC PZ                           -000000000444200000003035985200901324AFIL.-009326778                         
65501482660     2202201707000572IVA COM TC PZO                          -000000000071070000003035274500901325AFIL.-009326778                         
65501482660     2202201709357012DEP EN EFECTIV                          +000000013307400000003168348500000000016550148266011738259                   
65501482660     2202201709357012DEP EN EFECTIV                          +000000007244000000003240788500000000016550148266011735220                   
65501482660     2202201709357012DEP EN EFECTIV                          +000000016585700000003406645500000000016550148266011740269                   
65501482660     2202201709357012DEP EN EFECTIV                          +000000009585000000003502495500000000016550148266011735220                   
65501482660     2202201709357012DEP EN EFECTIV                          +000000465385000000008156345500000000026550148266011739289                   
65501482660     2202201709357012DEP EN EFECTIV                          +000000690341000000015059755500000000026550148266011749209                   
65501482660     2202201709357012DEP EN EFECTIV                          +000000538646000000020446215500000000026550148266011746267                   
65501482660     2202201709357012DEP EN EFECTIV                          +000000738905200000027835267500000000066550148266011738247                   
65501482660     2202201709357012DEP EN EFECTIV                          +000000040000000000028235267500000000026550148266011728259                   
65501482660     2202201709357012DEP EN EFECTIV                          +000000009357000000028328837500000000016550148266011730252                   
65501482660     2202201709357012DEP EN EFECTIV                          +000000081822500000029147062500000000096550148266011742237                   
65501482660     2202201709357012DEP EN EFECTIV                          +000000224488000000031391942500000000056550148266011730223                   
65501482660     2202201709357012DEP EN EFECTIV                          +000000331717700000034709119500000000056550148266011737217                   
65501482660     2202201709357012DEP EN EFECTIV                          +000000013330500000034842424500000000016550148266011735220                   
65501482660     2202201709357012DEP EN EFECTIV                          +000000627983500000041122259500000000016550148266011740269                   
65501482660     2202201709357012DEP EN EFECTIV                          +000000002827500000041150534500000000016550148266011732278                   
65501482660     2202201709357012DEP EN EFECTIV                          +000000856578600000049716320500000000036550148266011695240                   
65501482660     2202201709357012DEP EN EFECTIV                          +000000219914500000051915465500000000016550148266011735220                   
65501482660     2202201709357012DEP EN EFECTIV                          +000000147946000000053394925500000000086550148266011849233                   
65501482660     2202201709357012DEP EN EFECTIV                          +000000248843000000055883355500000000016550148266011737246                   
65501482660     2202201709357012DEP EN EFECTIV                          +000000858100000000064464355500000000016550148266011740269                   
65501482660     2202201709357012DEP EN EFECTIV                          +000000080000000000065264355500000000016550148266011746250                   
65501482660     2202201709357012DEP EN EFECTIV                          +000000016702200000065431377500000000036550148266011692201                   
65501482660     2202201709357012DEP EN EFECTIV                          +000000029500000000065726377500000000036550148266011698279                   
65501482660     2202201709466803DEP EN EFECTIV                          +000000335261000000069078987508031597106550148266011704255                   
65501482660     2202201709526803DEP EN EFECTIV                          +000000080639000000069885377508031614106550148266011704255                   
65501482660     2202201710203687COM VTA TC PZ                           -000000000119040000069884187100000000AFIL. 1993054                           
65501482660     2202201710203687IVA COM TC PZO                          -000000000019040000069883996700000000AFIL. 1993054                           
65501482660     2202201710203687COM VTA TC PZ                           -000000000634800000069877648700000000AFIL. 1993062                           
65501482660     2202201710203687IVA COM TC PZO                          -000000000101560000069876633100000000AFIL. 1993062                           
65501482660     2202201710344665DEP EN EFECTIV                          +000000006722000000069943853106656704066550148266011783267                   
65501482660     2202201710367012DEP EN EFECTIV                          +000000008986000000070033713100000000111687223                               
65501482660     2202201710367012DEP EN EFECTIV                          +000000000991000000070043623100000000311681268                               
65501482660     2202201710367012DEP EN EFECTIV                          +000000562673100000075670354100000000111682255                               
65501482660     2202201712360981AB TRANS ELECT                          +000000007042000000075740774100964886036550148266011687249                   
65501482660     2202201713098646DEP EN EFECTIV                          +000000077434670000076515120806467291066550148266011780228                   
65501482660     2202201713150981AB TRANS ELECT                          +000000057751000000077092630801113029036550148266011699292                   
65501482660     2202201713164653DEP S B COBRO                           +000000002873000000077121360806535928086550148266011808249                   
65501482660     2202201713184653DEP CHEQ N CGO                          +000000001120000000077132560806535932086550148266011808249                   
65501482660     2202201713370981AB TRANS ELECT                          +000000011172000000077244280801189348036550148266011702261                   
65501482660     2202201713450890ABONO X CBZA                            +000000003042000000077274700808754485113311866911683259                      
